{
  "transactions": [
    {
      "hash": "0xf4c6dc67d74f3999c0b25b19140c20a8ca27dc2f835aea9cd711a8d0e33961a3",
      "transactionType": "CREATE",
      "contractName": "ReputationTokens",
      "contractAddress": "0x18415df9C157F25b17e6E27413309547FAc25594",
      "function": null,
      "arguments": [
        "0x2F15D4A66D22ecC6967928b6A76Ab06897b05676",
        "[0x91eC71D0D5f704310E8d7b66418a523b03D18C29, 0x2F15D4A66D22ecC6967928b6A76Ab06897b05676]",
        "[0x91eC71D0D5f704310E8d7b66418a523b03D18C29, 0x2F15D4A66D22ecC6967928b6A76Ab06897b05676]",
        "[]",
        "[]"
      ],
      "transaction": {
        "type": "0x00",
        "from": "0x91ec71d0d5f704310e8d7b66418a523b03d18c29",
        "gas": "0x3fcb6c",
        "value": "0x0",
        "data": "0x60806040523480156200001157600080fd5b5060405162003d6538038062003d65833981016040819052620000349162000667565b6200003f8562000198565b60005b845181101562000092576200007d6000801b868381518110620000695762000069620007a1565b6020026020010151620001a660201b60201c565b806200008981620007b7565b91505062000042565b5060005b8351811015620000ef57620000da7ffc1552b6aa2747ab03534329d86f6d3131cc2c88af7e48b6486c346619047c1a858381518110620000695762000069620007a1565b80620000e681620007b7565b91505062000096565b50600082516001600160401b038111156200010e576200010e62000462565b60405190808252806020026020018201604052801562000138578160200160208202803683370190505b50905060005b81518110156200017e57808282815181106200015e576200015e620007a1565b6020908102919091010152806200017581620007b7565b9150506200013e565b506200018c8184846200021c565b50505050505062000984565b620001a381620002ab565b50565b60008281527fd3889cc5458b268d0544e5534672df1296288ca3f93cbd39bd6f497a5c62281160205260409020620001df908262000325565b5060405133906001600160a01b0383169084907f2f8788117e7eff1d82e926ec794901d17c78024a50270940304540a733656f0d90600090a45050565b60005b8351811015620002a55762000290848281518110620002425762000242620007a1565b60200260200101518483815181106200025f576200025f620007a1565b60200260200101518484815181106200027c576200027c620007a1565b60200260200101516200034560201b60201c565b806200029c81620007b7565b9150506200021f565b50505050565b7f8a22373512790c48b83a1fe2efdd2888d4a917bcdc24d0adf63e60f67168046080546040516001600160a01b038481169216907f8be0079c531659141344cd1fd0a4f28419497f9722a3daafe3b4186f6b6457e090600090a380546001600160a01b0319166001600160a01b0392909216919091179055565b60006200033c836001600160a01b03841662000389565b90505b92915050565b6000838152602081905260409020805483919060ff19166001836002811115620003735762000373620007df565b0217905550620003848382620003cd565b505050565b60008181526001830160205260408120546200033f575081546001808201845560008481526020808220909301849055845493815293810190915260409092205590565b60008281527f4281b61aefbe70b3d3f684b428efca5f33077bc240e76f2808f9177c307617f56020526040902062000406828262000883565b50817f6bb7ff708619ba0610cba295a58592e0451dee2622938c8755667688daf3529b826040516200043991906200094f565b60405180910390a25050565b80516001600160a01b03811681146200045d57600080fd5b919050565b634e487b7160e01b600052604160045260246000fd5b604051601f8201601f191681016001600160401b0381118282101715620004a357620004a362000462565b604052919050565b60006001600160401b03821115620004c757620004c762000462565b5060051b60200190565b600082601f830112620004e357600080fd5b81516020620004fc620004f683620004ab565b62000478565b82815260059290921b840181019181810190868411156200051c57600080fd5b8286015b848110156200054257620005348162000445565b835291830191830162000520565b509695505050505050565b60005b838110156200056a57818101518382015260200162000550565b50506000910152565b6000601f83818401126200058657600080fd5b8251602062000599620004f683620004ab565b82815260059290921b85018101918181019087841115620005b957600080fd5b8287015b848110156200065b5780516001600160401b0380821115620005df5760008081fd5b818a0191508a603f830112620005f55760008081fd5b858201516040828211156200060e576200060e62000462565b62000621828b01601f1916890162000478565b92508183528c81838601011115620006395760008081fd5b6200064a828985018387016200054d565b5050845250918301918301620005bd565b50979650505050505050565b600080600080600060a086880312156200068057600080fd5b6200068b8662000445565b602087810151919650906001600160401b0380821115620006ab57600080fd5b620006b98a838b01620004d1565b96506040890151915080821115620006d057600080fd5b620006de8a838b01620004d1565b95506060890151915080821115620006f557600080fd5b818901915089601f8301126200070a57600080fd5b81516200071b620004f682620004ab565b81815260059190911b8301840190848101908c8311156200073b57600080fd5b938501935b828510156200076a578451600381106200075a5760008081fd5b8252938501939085019062000740565b60808c015190975094505050808311156200078457600080fd5b5050620007948882890162000573565b9150509295509295909350565b634e487b7160e01b600052603260045260246000fd5b600060018201620007d857634e487b7160e01b600052601160045260246000fd5b5060010190565b634e487b7160e01b600052602160045260246000fd5b600181811c908216806200080a57607f821691505b6020821081036200082b57634e487b7160e01b600052602260045260246000fd5b50919050565b601f8211156200038457600081815260208120601f850160051c810160208610156200085a5750805b601f850160051c820191505b818110156200087b5782815560010162000866565b505050505050565b81516001600160401b038111156200089f576200089f62000462565b620008b781620008b08454620007f5565b8462000831565b602080601f831160018114620008ef5760008415620008d65750858301515b600019600386901b1c1916600185901b1785556200087b565b600085815260208120601f198616915b828110156200092057888601518255948401946001909101908401620008ff565b50858210156200093f5787850151600019600388901b60f8161c191681555b5050505050600190811b01905550565b6020815260008251806020840152620009708160408501602087016200054d565b601f01601f19169190910160400192915050565b6133d180620009946000396000f3fe608060405234801561001057600080fd5b506004361061021b5760003560e01c80638accdfe911610125578063bd85b039116100ad578063d547741f1161007c578063d547741f14610561578063e985e9c514610574578063efc1e71214610587578063f242432a1461059a578063f2fde38b146105ad57600080fd5b8063bd85b039146104ed578063ca15c87314610500578063caa2fe3214610513578063d53913931461053a57600080fd5b80639010d07c116100f45780639010d07c1461046d57806391d1485414610480578063a1a7212014610493578063a22cb465146104c7578063b383577c146104da57600080fd5b80638accdfe9146104005780638ada943b146104135780638bb9c5bf1461043a5780638da5cb5b1461044d57600080fd5b80634ae1ca4c116101a8578063731133e911610177578063731133e91461036357806376aed2e1146103765780637bbb0807146103a6578063835c9282146103b957806385bff2e7146103ed57600080fd5b80634ae1ca4c146102fd5780634e1273f41461031057806353536a1c146103305780636dcfd8411461034357600080fd5b80631f7fdffa116101ef5780631f7fdffa1461029c578063248a9ca3146102b15780632eb2c2d6146102c45780632f2ff15d146102d757806343567fe2146102ea57600080fd5b8062fdd58e1461022057806301ffc9a7146102465780630e89341c1461026957806313ba55df14610289575b600080fd5b61023361022e366004612661565b6105c0565b6040519081526020015b60405180910390f35b6102596102543660046126a1565b6105d5565b604051901515815260200161023d565b61027c6102773660046126be565b610616565b60405161023d9190612727565b6102336102973660046126be565b6107e5565b6102af6102aa366004612883565b6107f0565b005b6102336102bf3660046126be565b6108d6565b6102af6102d236600461291b565b6108e1565b6102af6102e53660046129c4565b61094b565b6102af6102f83660046129ff565b61096c565b61023361030b366004612661565b6109e4565b61032361031e366004612a55565b610a49565b60405161023d9190612b5a565b6102af61033e36600461291b565b610bb3565b6103566103513660046126be565b610c3f565b60405161023d9190612b6d565b6102af610371366004612bba565b610c4a565b6103996103843660046126be565b60009081526020819052604090205460ff1690565b60405161023d9190612c46565b6102af6103b4366004612cde565b610cd1565b6102336103c7366004612661565b60009081526002602090815260408083206001600160a01b039094168352929052205490565b6103236103fb366004612dc1565b610d60565b6102af61040e366004612ddc565b610d6b565b6102337f832b0668f4756f82d274d4d6d2a66f96a8b25b4353ad5dfdae0e691d7769619b81565b6102af6104483660046126be565b610dd9565b610455610de5565b6040516001600160a01b03909116815260200161023d565b61045561047b366004612e40565b610e1d565b61025961048e3660046129c4565b610e29565b6102336104a1366004612661565b60009081526001602090815260408083206001600160a01b039094168352929052205490565b6102af6104d5366004612e62565b610e35565b6102af6104e836600461291b565b610ee9565b6102336104fb3660046126be565b610f53565b61023361050e3660046126be565b610f86565b6102337ffc1552b6aa2747ab03534329d86f6d3131cc2c88af7e48b6486c346619047c1a81565b6102337f9f2df0fed2c77648de5860a4cc508cd0818c85b8b8a1ab4ceeef8d981c8956a681565b6102af61056f3660046129c4565b610f91565b610259610582366004612e9e565b610fad565b6102af610595366004612ddc565b610ffa565b6102af6105a8366004612ddc565b611087565b6102af6105bb366004612dc1565b6110a0565b60006105cc83836110f3565b90505b92915050565b6001600160e01b0319811660009081527ffc606c433378e3a7e0a6a531deac289b66caa1b4aa8554fd4ab2c6f1570f92d8602052604081205460ff166105cf565b60008181527f4281b61aefbe70b3d3f684b428efca5f33077bc240e76f2808f9177c307617f56020526040812080546060927f4281b61aefbe70b3d3f684b428efca5f33077bc240e76f2808f9177c307617f492909161067590612ec8565b80601f01602080910402602001604051908101604052809291908181526020018280546106a190612ec8565b80156106ee5780601f106106c3576101008083540402835291602001916106ee565b820191906000526020600020905b8154815290600101906020018083116106d157829003601f168201915b50505050509050600082600001805461070690612ec8565b80601f016020809104026020016040519081016040528092919081815260200182805461073290612ec8565b801561077f5780601f106107545761010080835404028352916020019161077f565b820191906000526020600020905b81548152906001019060200180831161076257829003601f168201915b50505050509050805160000361079757509392505050565b8151156107ca5780826040516020016107b1929190612f02565b6040516020818303038152906040529350505050919050565b806107d486611151565b6040516020016107b1929190612f02565b60006105cf8261115e565b7f9f2df0fed2c77648de5860a4cc508cd0818c85b8b8a1ab4ceeef8d981c8956a661081a81611194565b60005b84518110156108755761086385828151811061083b5761083b612f31565b60200260200101518786848151811061085657610856612f31565b602002602001015161119e565b8061086d81612f5d565b91505061081d565b50846001600160a01b0316336001600160a01b03167f5c5ac6bfb3f54a39f008d2e9be10d575012f29230716d49e92da377d748b1a8786866040516108bb929190612f76565b60405180910390a36108cf858585856111da565b5050505050565b60006105cf82611331565b60005b835181101561093d5761092b868686848151811061090457610904612f31565b602002602001015186858151811061091e5761091e612f31565b6020026020010151611353565b8061093581612f5d565b9150506108e4565b506108cf8585858585611428565b61095482611331565b61095d81611194565b6109678383611473565b505050565b7ffc1552b6aa2747ab03534329d86f6d3131cc2c88af7e48b6486c346619047c1a61099681611194565b6109a18484846114d5565b8260028111156109b3576109b3612c0e565b60405185907fead07cdef2d99ab0a2ec063fec849359dcf522a7aef017a8578461a11a478db390600090a350505050565b6000806109f184846105c0565b60008481526001602090815260408083206001600160a01b038916808552908352818420548885526002845282852091855292529091205491925090610a379083612f9b565b610a419190612f9b565b949350505050565b60608151835114610a6d57604051633e7e0b6d60e11b815260040160405180910390fd5b825160008051602061337c833981519152906000906001600160401b03811115610a9957610a9961273a565b604051908082528060200260200182016040528015610ac2578160200160208202803683370190505b50905060005b8551811015610baa5760006001600160a01b0316868281518110610aee57610aee612f31565b60200260200101516001600160a01b031603610b1d5760405163db5d879760e01b815260040160405180910390fd5b826000868381518110610b3257610b32612f31565b602002602001015181526020019081526020016000206000878381518110610b5c57610b5c612f31565b60200260200101516001600160a01b03166001600160a01b0316815260200190815260200160002054828281518110610b9757610b97612f31565b6020908102919091010152600101610ac8565b50949350505050565b7f832b0668f4756f82d274d4d6d2a66f96a8b25b4353ad5dfdae0e691d7769619b610bdd81611194565b846001600160a01b0316866001600160a01b03167fae334044d89a4678143ca617bb58de300b0747c711a5515afc005344ce0169478686604051610c22929190612f76565b60405180910390a3610c378686868686611428565b505050505050565b60606105cf8261150f565b7f9f2df0fed2c77648de5860a4cc508cd0818c85b8b8a1ab4ceeef8d981c8956a6610c7481611194565b610c7f84868561119e565b60408051858152602081018590526001600160a01b0387169133917f2f00e3cdd69a77be7ed215ec7b2a36784dd158f921fca79ac29deffa353fe6ee910160405180910390a36108cf858585856115e2565b7ffc1552b6aa2747ab03534329d86f6d3131cc2c88af7e48b6486c346619047c1a610cfb81611194565b610d068484846116bb565b82604051610d149190612fae565b604051809103902084604051610d2a9190612feb565b604051908190038120907f458bf7bb252bc16e01b2caf4ced1e71c065d09eccd86100e5f32036a1a55601490600090a350505050565b60606105cf8261172f565b610d768386846117f7565b836001600160a01b0316856001600160a01b03167fcc27ae92d0cb1b1cee817e78e1fd2d4aaf4b6fceecf8400f074698578a83c9be8585604051610dc4929190918252602082015260400190565b60405180910390a36108cf8585858585611829565b610de281611874565b50565b6000610e187f8a22373512790c48b83a1fe2efdd2888d4a917bcdc24d0adf63e60f671680460546001600160a01b031690565b905090565b60006105cc838361187e565b60006105cc83836118a3565b6001600160a01b0382163303610e5e57604051637b30a93360e11b815260040160405180910390fd5b3360008181527f1799cf914cb0cb442ca7c7ac709ee40d0cb89e87351dc08d517fbda27d50c68c602090815260408083206001600160a01b03871680855290835292819020805460ff191686151590811790915590519081529192917f17307eab39ab6107e8899845ad3d59bd9653f200f220920489ca2b5937696c31910160405180910390a35050565b60005b8351811015610f4457610f32848281518110610f0a57610f0a612f31565b602002602001015187858481518110610f2557610f25612f31565b60200260200101516117f7565b80610f3c81612f5d565b915050610eec565b506108cf8586868686866118c8565b60008181527fb31c2c74f86ca3ce94d901f5f5bbe66f7161eec2f7b5aa0b75a86371436424ea60205260408120546105cf565b60006105cf826118e4565b610f9a82611331565b610fa381611194565b6109678383611908565b6001600160a01b0391821660009081527f1799cf914cb0cb442ca7c7ac709ee40d0cb89e87351dc08d517fbda27d50c68c6020908152604080832093909416825291909152205460ff1690565b7f832b0668f4756f82d274d4d6d2a66f96a8b25b4353ad5dfdae0e691d7769619b61102481611194565b846001600160a01b0316866001600160a01b03167fd616b8856fa5febbdb06f07dd8d624380d02864619f3b796002f43bc36a4d1bc8686604051611072929190918252602082015260400190565b60405180910390a3610c378686868686611829565b61109385858585611353565b6108cf8585858585611829565b7f8a22373512790c48b83a1fe2efdd2888d4a917bcdc24d0adf63e60f671680460546001600160a01b031633146110ea57604051632f7a8ee160e01b815260040160405180910390fd5b610de28161196a565b60006001600160a01b03831661111c5760405163db5d879760e01b815260040160405180910390fd5b60008051602061337c8339815191526000928352602090815260408084206001600160a01b0395909516845293905250205490565b60606105cf82600a611973565b60008181527fb31c2c74f86ca3ce94d901f5f5bbe66f7161eec2f7b5aa0b75a86371436424eb602052604081206105cf906119c9565b610de281336119d3565b60008381526001602090815260408083206001600160a01b0386168452909152812080548392906111d0908490613015565b9091555050505050565b6001600160a01b038416611201576040516301c8efbf60e11b815260040160405180910390fd5b815183511461122357604051633e7e0b6d60e11b815260040160405180910390fd5b61123233600086868686611a42565b60008051602061337c83398151915260005b84518110156112d15783818151811061125f5761125f612f31565b602002602001015182600087848151811061127c5761127c612f31565b602002602001015181526020019081526020016000206000886001600160a01b03166001600160a01b0316815260200190815260200160002060008282546112c49190613015565b9091555050600101611244565b50846001600160a01b031660006001600160a01b0316336001600160a01b03167f4a39dc06d4c0dbc64b70af90fd698a233a518aa5d07e595d983b8c0526c8f7fb8787604051611322929190612f76565b60405180910390a45050505050565b600090815260008051602061335c833981519152602052604090206002015490565b600160008381526020819052604090205460ff16600281111561137857611378612c0e565b03611396576040516326e9d7ed60e21b815260040160405180910390fd5b6113a084836109e4565b8111156113c0576040516350c8cedb60e11b815260040160405180910390fd5b600260008381526020819052604090205460ff1660028111156113e5576113e5612c0e565b036114225760008281526002602090815260408083206001600160a01b03871684529091528120805483929061141c908490613015565b90915550505b50505050565b6001600160a01b038516331480159061144857506114468533610fad565b155b15611465576040516212efed60e91b815260040160405180910390fd5b6108cf3386868686866118c8565b600082815260008051602061335c833981519152602052604090206114989082611a50565b5060405133906001600160a01b0383169084907f2f8788117e7eff1d82e926ec794901d17c78024a50270940304540a733656f0d90600090a45050565b6000838152602081905260409020805483919060ff1916600183600281111561150057611500612c0e565b02179055506109678382611a65565b60008181527fb31c2c74f86ca3ce94d901f5f5bbe66f7161eec2f7b5aa0b75a86371436424eb60205260408120606091611548826119c9565b6001600160401b0381111561155f5761155f61273a565b604051908082528060200260200182016040528015611588578160200160208202803683370190505b50905060005b611597836119c9565b8110156115da576115a88382611ad9565b8282815181106115ba576115ba612f31565b6001600160a01b039092166020928302919091019091015260010161158e565b509392505050565b6001600160a01b038416611609576040516301c8efbf60e11b815260040160405180910390fd5b6116283360008661161987611ae5565b61162287611ae5565b86611a42565b600083815260008051602061337c833981519152602090815260408083206001600160a01b038816845290915281208054849290611667908490613015565b909155505060408051848152602081018490526001600160a01b0386169160009133917fc3d58168c5ae7397731d063d5bbf3d657854427343f4c083240f7aacaa2d0f62910160405180910390a450505050565b60005b83518110156114225761171d8482815181106116dc576116dc612f31565b60200260200101518483815181106116f6576116f6612f31565b602002602001015184848151811061171057611710612f31565b60200260200101516114d5565b8061172781612f5d565b9150506116be565b6001600160a01b03811660009081527fb31c2c74f86ca3ce94d901f5f5bbe66f7161eec2f7b5aa0b75a86371436424ec60205260408120606091611772826119c9565b6001600160401b038111156117895761178961273a565b6040519080825280602002602001820160405280156117b2578160200160208202803683370190505b50905060005b6117c1836119c9565b8110156115da576117d28382611ad9565b8282815181106117e4576117e4612f31565b60209081029190910101526001016117b8565b60008381526001602090815260408083206001600160a01b0386168452909152812080548392906111d0908490612f9b565b6001600160a01b038516331480159061184957506118478533610fad565b155b15611866576040516212efed60e91b815260040160405180910390fd5b6108cf338686868686611b30565b610de28133611908565b600082815260008051602061335c833981519152602052604081206105cc9083611ad9565b600082815260008051602061335c833981519152602052604081206105cc9083611b4c565b6118d6868686868686611b6e565b610c37868686868686611d17565b600081815260008051602061335c833981519152602052604081206105cf906119c9565b600082815260008051602061335c8339815191526020526040902061192d9082611e30565b5060405133906001600160a01b0383169084907ff6391f5c32d9c69d2a47ea670b442974b53935d1edc7fd64eb21e047a839171b90600090a45050565b610de281611e45565b6060600282101561199757604051636cec05d160e01b815260040160405180910390fd5b6000835b6001909101906119ab848261303e565b90508060000361199b576119c0858584611ebf565b95945050505050565b60006105cf825490565b6119dd82826118a3565b611a3e576119f3816001600160a01b0316611fc4565b6119fe836020611fd6565b604051602001611a0f929190613052565b60408051601f198184030181529082905262461bcd60e51b8252611a3591600401612727565b60405180910390fd5b5050565b610c3786868686868661211b565b60006105cc836001600160a01b038416612307565b60008281527f4281b61aefbe70b3d3f684b428efca5f33077bc240e76f2808f9177c307617f560205260409020611a9c828261310d565b50817f6bb7ff708619ba0610cba295a58592e0451dee2622938c8755667688daf3529b82604051611acd9190612727565b60405180910390a25050565b60006105cc838361234a565b60408051600180825281830190925260609160009190602080830190803683370190505090508281600081518110611b1f57611b1f612f31565b602090810291909101015292915050565b611b3e868686868686612396565b610c378686868686866124ac565b6001600160a01b038116600090815260018301602052604081205415156105cc565b6001600160a01b038416611b955760405163f5cadad560e01b815260040160405180910390fd5b8151835114611bb757604051633e7e0b6d60e11b815260040160405180910390fd5b611bc5868686868686611a42565b60008051602061337c83398151915260005b8451811015611cb6576000858281518110611bf457611bf4612f31565b602002602001015190506000858381518110611c1257611c12612f31565b602090810291909101810151600084815286835260408082206001600160a01b038e168352909352919091205490915080821115611c635760405163119ac6bb60e31b815260040160405180910390fd5b6000838152602086815260408083206001600160a01b038e811685529252808320938590039093558a168152908120805460019590950194839290611ca9908490613015565b90915550611bd792505050565b50846001600160a01b0316866001600160a01b0316886001600160a01b03167f4a39dc06d4c0dbc64b70af90fd698a233a518aa5d07e595d983b8c0526c8f7fb8787604051611d06929190612f76565b60405180910390a450505050505050565b6001600160a01b0384163b15610c375760405163bc197c8160e01b81526001600160a01b0385169063bc197c8190611d5b90899089908890889088906004016131cc565b6020604051808303816000875af1925050508015611d96575060408051601f3d908101601f19168201909252611d939181019061322a565b60015b611df657611da2613247565b806308c379a003611ddb5750611db6613263565b80611dc15750611ddd565b8060405162461bcd60e51b8152600401611a359190612727565b505b60405163380147a960e01b815260040160405180910390fd5b6001600160e01b0319811663bc197c8160e01b14611e2757604051633744db2960e01b815260040160405180910390fd5b50505050505050565b60006105cc836001600160a01b038416612568565b7f8a22373512790c48b83a1fe2efdd2888d4a917bcdc24d0adf63e60f67168046080546040516001600160a01b038481169216907f8be0079c531659141344cd1fd0a4f28419497f9722a3daafe3b4186f6b6457e090600090a380546001600160a01b0319166001600160a01b0392909216919091179055565b60606002831080611ed05750602483115b15611eee57604051636cec05d160e01b815260040160405180910390fd5b6000826001600160401b03811115611f0857611f0861273a565b6040519080825280601f01601f191660200182016040528015611f32576020820181803683370190505b5090505b8215611fa557600019909201916000611f4f85876132ec565b9050600a811015611f6257603017611f66565b6057015b8060f81b828581518110611f7c57611f7c612f31565b60200101906001600160f81b031916908160001a905350611f9d858761303e565b955050611f36565b8415610a41576040516355a04ff160e11b815260040160405180910390fd5b60606105cf6001600160a01b03831660145b60011b60020160606000826001600160401b03811115611ff857611ff861273a565b6040519080825280601f01601f191660200182016040528015612022576020820181803683370190505b509050600360fc1b8160008151811061203d5761203d612f31565b60200101906001600160f81b031916908160001a905350600f60fb1b8160018151811061206c5761206c612f31565b60200101906001600160f81b031916908160001a9053505b60028311156120f557600019909201916f181899199a1a9b1b9c1cb0b131b232b360811b600f8516601081106120bc576120bc612f31565b1a60f81b8184815181106120d2576120d2612f31565b60200101906001600160f81b031916908160001a905350600484901c9350612084565b8315612114576040516355a04ff160e11b815260040160405180910390fd5b9392505050565b836001600160a01b0316856001600160a01b031614610c37576001600160a01b0385811660009081527fb31c2c74f86ca3ce94d901f5f5bbe66f7161eec2f7b5aa0b75a86371436424ec6020526040808220928716825281207fb31c2c74f86ca3ce94d901f5f5bbe66f7161eec2f7b5aa0b75a86371436424ea927fb31c2c74f86ca3ce94d901f5f5bbe66f7161eec2f7b5aa0b75a86371436424eb929091905b87518110156122fa5760008782815181106121d9576121d9612f31565b6020026020010151905060008111156122f157600089838151811061220057612200612f31565b6020026020010151905060006001600160a01b03168c6001600160a01b03160361224d5760008181526020889052604081208054849290612242908490613015565b909155506122829050565b816122588d836110f3565b03612282576000818152602087905260409020612275908d611e30565b50612280858261262d565b505b6001600160a01b038b166122b957600081815260208890526040812080548492906122ae908490612f9b565b909155506122ef9050565b6122c38b826110f3565b6000036122ef5760008181526020879052604090206122e2908c611a50565b506122ed8482612639565b505b505b506001016121bc565b5050505050505050505050565b60008181526001830160205260408120546105cf575081546001808201845560008481526020808220909301849055845493815293810190915260409092205590565b8154600090821061236e5760405163e637bf3b60e01b815260040160405180910390fd5b82600001828154811061238357612383612f31565b9060005260206000200154905092915050565b6001600160a01b0384166123bd5760405163f5cadad560e01b815260040160405180910390fd5b6123cc86868661161987611ae5565b600083815260008051602061337c833981519152602081815260408084206001600160a01b038a168552909152909120548084111561241e5760405163119ac6bb60e31b815260040160405180910390fd5b6000858152602083815260408083206001600160a01b038b8116855292528083209387900390935587168152908120805485929061245d908490613015565b909155505060408051858152602081018590526001600160a01b038088169289821692918b16917fc3d58168c5ae7397731d063d5bbf3d657854427343f4c083240f7aacaa2d0f629101611d06565b6001600160a01b0384163b15610c375760405163f23a6e6160e01b81526001600160a01b0385169063f23a6e61906124f09089908990889088908890600401613300565b6020604051808303816000875af192505050801561252b575060408051601f3d908101601f191682019092526125289181019061322a565b60015b61253757611da2613247565b6001600160e01b0319811663f23a6e6160e01b14611e2757604051633744db2960e01b815260040160405180910390fd5b600081815260018301602052604081205480156126265783546000908590600019810190811061259a5761259a612f31565b90600052602060002001549050808560000160018403815481106125c0576125c0612f31565b60009182526020808320909101929092559182526001860190526040902081905583548490806125f2576125f2613345565b6001900381819060005260206000200160009055905583600101600084815260200190815260200160002060009055600191505b5092915050565b60006105cc8383612568565b60006105cc8383612307565b80356001600160a01b038116811461265c57600080fd5b919050565b6000806040838503121561267457600080fd5b61267d83612645565b946020939093013593505050565b6001600160e01b031981168114610de257600080fd5b6000602082840312156126b357600080fd5b81356121148161268b565b6000602082840312156126d057600080fd5b5035919050565b60005b838110156126f25781810151838201526020016126da565b50506000910152565b600081518084526127138160208601602086016126d7565b601f01601f19169290920160200192915050565b6020815260006105cc60208301846126fb565b634e487b7160e01b600052604160045260246000fd5b601f8201601f191681016001600160401b03811182821017156127755761277561273a565b6040525050565b60006001600160401b038211156127955761279561273a565b5060051b60200190565b600082601f8301126127b057600080fd5b813560206127bd8261277c565b6040516127ca8282612750565b83815260059390931b85018201928281019150868411156127ea57600080fd5b8286015b8481101561280557803583529183019183016127ee565b509695505050505050565b600082601f83011261282157600080fd5b81356001600160401b0381111561283a5761283a61273a565b604051612851601f8301601f191660200182612750565b81815284602083860101111561286657600080fd5b816020850160208301376000918101602001919091529392505050565b6000806000806080858703121561289957600080fd5b6128a285612645565b935060208501356001600160401b03808211156128be57600080fd5b6128ca8883890161279f565b945060408701359150808211156128e057600080fd5b6128ec8883890161279f565b9350606087013591508082111561290257600080fd5b5061290f87828801612810565b91505092959194509250565b600080600080600060a0868803121561293357600080fd5b61293c86612645565b945061294a60208701612645565b935060408601356001600160401b038082111561296657600080fd5b61297289838a0161279f565b9450606088013591508082111561298857600080fd5b61299489838a0161279f565b935060808801359150808211156129aa57600080fd5b506129b788828901612810565b9150509295509295909350565b600080604083850312156129d757600080fd5b823591506129e760208401612645565b90509250929050565b80356003811061265c57600080fd5b600080600060608486031215612a1457600080fd5b83359250612a24602085016129f0565b915060408401356001600160401b03811115612a3f57600080fd5b612a4b86828701612810565b9150509250925092565b60008060408385031215612a6857600080fd5b82356001600160401b0380821115612a7f57600080fd5b818501915085601f830112612a9357600080fd5b81356020612aa08261277c565b604051612aad8282612750565b83815260059390931b8501820192828101915089841115612acd57600080fd5b948201945b83861015612af257612ae386612645565b82529482019490820190612ad2565b96505086013592505080821115612b0857600080fd5b50612b158582860161279f565b9150509250929050565b600081518084526020808501945080840160005b83811015612b4f57815187529582019590820190600101612b33565b509495945050505050565b6020815260006105cc6020830184612b1f565b6020808252825182820181905260009190848201906040850190845b81811015612bae5783516001600160a01b031683529284019291840191600101612b89565b50909695505050505050565b60008060008060808587031215612bd057600080fd5b612bd985612645565b9350602085013592506040850135915060608501356001600160401b03811115612c0257600080fd5b61290f87828801612810565b634e487b7160e01b600052602160045260246000fd5b60038110612c4257634e487b7160e01b600052602160045260246000fd5b9052565b602081016105cf8284612c24565b600082601f830112612c6557600080fd5b81356020612c728261277c565b604051612c7f8282612750565b83815260059390931b8501820192828101915086841115612c9f57600080fd5b8286015b848110156128055780356001600160401b03811115612cc25760008081fd5b612cd08986838b0101612810565b845250918301918301612ca3565b600080600060608486031215612cf357600080fd5b83356001600160401b0380821115612d0a57600080fd5b612d168783880161279f565b9450602091508186013581811115612d2d57600080fd5b8601601f81018813612d3e57600080fd5b8035612d498161277c565b604051612d568282612750565b82815260059290921b830185019185810191508a831115612d7657600080fd5b928501925b82841015612d9b57612d8c846129f0565b82529285019290850190612d7b565b96505050506040860135915080821115612db457600080fd5b50612a4b86828701612c54565b600060208284031215612dd357600080fd5b6105cc82612645565b600080600080600060a08688031215612df457600080fd5b612dfd86612645565b9450612e0b60208701612645565b9350604086013592506060860135915060808601356001600160401b03811115612e3457600080fd5b6129b788828901612810565b60008060408385031215612e5357600080fd5b50508035926020909101359150565b60008060408385031215612e7557600080fd5b612e7e83612645565b915060208301358015158114612e9357600080fd5b809150509250929050565b60008060408385031215612eb157600080fd5b612eba83612645565b91506129e760208401612645565b600181811c90821680612edc57607f821691505b602082108103612efc57634e487b7160e01b600052602260045260246000fd5b50919050565b60008351612f148184602088016126d7565b835190830190612f288183602088016126d7565b01949350505050565b634e487b7160e01b600052603260045260246000fd5b634e487b7160e01b600052601160045260246000fd5b600060018201612f6f57612f6f612f47565b5060010190565b604081526000612f896040830185612b1f565b82810360208401526119c08185612b1f565b818103818111156105cf576105cf612f47565b815160009082906020808601845b83811015612fdf57612fcf858351612c24565b9382019390820190600101612fbc565b50929695505050505050565b815160009082906020808601845b83811015612fdf57815185529382019390820190600101612ff9565b808201808211156105cf576105cf612f47565b634e487b7160e01b600052601260045260246000fd5b60008261304d5761304d613028565b500490565b7f416363657373436f6e74726f6c3a206163636f756e742000000000000000000081526000835161308a8160178501602088016126d7565b7001034b99036b4b9b9b4b733903937b6329607d1b60179184019182015283516130bb8160288401602088016126d7565b01602801949350505050565b601f82111561096757600081815260208120601f850160051c810160208610156130ee5750805b601f850160051c820191505b81811015610c37578281556001016130fa565b81516001600160401b038111156131265761312661273a565b61313a816131348454612ec8565b846130c7565b602080601f83116001811461316f57600084156131575750858301515b600019600386901b1c1916600185901b178555610c37565b600085815260208120601f198616915b8281101561319e5788860151825594840194600190910190840161317f565b50858210156131bc5787850151600019600388901b60f8161c191681555b5050505050600190811b01905550565b6001600160a01b0386811682528516602082015260a0604082018190526000906131f890830186612b1f565b828103606084015261320a8186612b1f565b9050828103608084015261321e81856126fb565b98975050505050505050565b60006020828403121561323c57600080fd5b81516121148161268b565b600060033d11156132605760046000803e5060005160e01c5b90565b600060443d10156132715790565b6040516003193d81016004833e81513d6001600160401b0381602484011181841117156132a057505050505090565b82850191508151818111156132b85750505050505090565b843d87010160208285010111156132d25750505050505090565b6132e160208286010187612750565b509095945050505050565b6000826132fb576132fb613028565b500690565b6001600160a01b03868116825285166020820152604081018490526060810183905260a06080820181905260009061333a908301846126fb565b979650505050505050565b634e487b7160e01b600052603160045260246000fdfed3889cc5458b268d0544e5534672df1296288ca3f93cbd39bd6f497a5c6228111799cf914cb0cb442ca7c7ac709ee40d0cb89e87351dc08d517fbda27d50c68ba264697066735822122030f1bc2b3dfe8f027e2f8f81c865d9733d91b626dddc1c45af7616dd7508cd7964736f6c634300081400330000000000000000000000002f15d4a66d22ecc6967928b6a76ab06897b0567600000000000000000000000000000000000000000000000000000000000000a0000000000000000000000000000000000000000000000000000000000000010000000000000000000000000000000000000000000000000000000000000001600000000000000000000000000000000000000000000000000000000000000180000000000000000000000000000000000000000000000000000000000000000200000000000000000000000091ec71d0d5f704310e8d7b66418a523b03d18c290000000000000000000000002f15d4a66d22ecc6967928b6a76ab06897b05676000000000000000000000000000000000000000000000000000000000000000200000000000000000000000091ec71d0d5f704310e8d7b66418a523b03d18c290000000000000000000000002f15d4a66d22ecc6967928b6a76ab06897b0567600000000000000000000000000000000000000000000000000000000000000000000000000000000000000000000000000000000000000000000000000000000",
        "nonce": "0x11"
      },
      "additionalContracts": [],
      "isFixedGasLimit": false
    },
    {
      "hash": "0xa3c3207a9d22f29d7cc4facac4e39a82d59fa330ba91c75266f690aa150b7830",
      "transactionType": "CALL",
      "contractName": "ReputationTokens",
      "contractAddress": "0x18415df9C157F25b17e6E27413309547FAc25594",
      "function": "grantRole(bytes32,address)",
      "arguments": [
        "0xfc1552b6aa2747ab03534329d86f6d3131cc2c88af7e48b6486c346619047c1a",
        "0x91eC71D0D5f704310E8d7b66418a523b03D18C29"
      ],
      "transaction": {
        "type": "0x00",
        "from": "0x91ec71d0d5f704310e8d7b66418a523b03d18c29",
        "to": "0x18415df9c157f25b17e6e27413309547fac25594",
        "gas": "0xb3ce",
        "value": "0x0",
        "data": "0x2f2ff15dfc1552b6aa2747ab03534329d86f6d3131cc2c88af7e48b6486c346619047c1a00000000000000000000000091ec71d0d5f704310e8d7b66418a523b03d18c29",
        "nonce": "0x12"
      },
      "additionalContracts": [],
      "isFixedGasLimit": false
    },
    {
      "hash": "0x48f8f0bd4cfda0cbf5f56021208d786cc1361f3da9f3d3c3a49be0a86cd05dcb",
      "transactionType": "CALL",
      "contractName": "ReputationTokens",
      "contractAddress": "0x18415df9C157F25b17e6E27413309547FAc25594",
      "function": "grantRole(bytes32,address)",
      "arguments": [
        "0x9f2df0fed2c77648de5860a4cc508cd0818c85b8b8a1ab4ceeef8d981c8956a6",
        "0x91eC71D0D5f704310E8d7b66418a523b03D18C29"
      ],
      "transaction": {
        "type": "0x00",
        "from": "0x91ec71d0d5f704310e8d7b66418a523b03d18c29",
        "to": "0x18415df9c157f25b17e6e27413309547fac25594",
        "gas": "0x22416",
        "value": "0x0",
        "data": "0x2f2ff15d9f2df0fed2c77648de5860a4cc508cd0818c85b8b8a1ab4ceeef8d981c8956a600000000000000000000000091ec71d0d5f704310e8d7b66418a523b03d18c29",
        "nonce": "0x13"
      },
      "additionalContracts": [],
      "isFixedGasLimit": false
    },
    {
      "hash": "0x3abac9aa151cc0448ddc364810c3e6cd5ec80ec66f95f993c1d0344c40ec0830",
      "transactionType": "CALL",
      "contractName": "ReputationTokens",
      "contractAddress": "0x18415df9C157F25b17e6E27413309547FAc25594",
      "function": "grantRole(bytes32,address)",
      "arguments": [
        "0x832b0668f4756f82d274d4d6d2a66f96a8b25b4353ad5dfdae0e691d7769619b",
        "0x91eC71D0D5f704310E8d7b66418a523b03D18C29"
      ],
      "transaction": {
        "type": "0x00",
        "from": "0x91ec71d0d5f704310e8d7b66418a523b03d18c29",
        "to": "0x18415df9c157f25b17e6e27413309547fac25594",
        "gas": "0x22416",
        "value": "0x0",
        "data": "0x2f2ff15d832b0668f4756f82d274d4d6d2a66f96a8b25b4353ad5dfdae0e691d7769619b00000000000000000000000091ec71d0d5f704310e8d7b66418a523b03d18c29",
        "nonce": "0x14"
      },
      "additionalContracts": [],
      "isFixedGasLimit": false
    },
    {
      "hash": "0xd9ebacabdb6d2fb2dccf147e7e65e5aa758a4766f6d518d456278f336d98a068",
      "transactionType": "CALL",
      "contractName": "ReputationTokens",
      "contractAddress": "0x18415df9C157F25b17e6E27413309547FAc25594",
      "function": "grantRole(bytes32,address)",
      "arguments": [
        "0xfc1552b6aa2747ab03534329d86f6d3131cc2c88af7e48b6486c346619047c1a",
        "0x2F15D4A66D22ecC6967928b6A76Ab06897b05676"
      ],
      "transaction": {
        "type": "0x00",
        "from": "0x91ec71d0d5f704310e8d7b66418a523b03d18c29",
        "to": "0x18415df9c157f25b17e6e27413309547fac25594",
        "gas": "0xb3ce",
        "value": "0x0",
        "data": "0x2f2ff15dfc1552b6aa2747ab03534329d86f6d3131cc2c88af7e48b6486c346619047c1a0000000000000000000000002f15d4a66d22ecc6967928b6a76ab06897b05676",
        "nonce": "0x15"
      },
      "additionalContracts": [],
      "isFixedGasLimit": false
    },
    {
      "hash": "0x1819614fef248d8d5d63b0208e23221a59a9c3ae8e70ae2573a927b54b2f9727",
      "transactionType": "CALL",
      "contractName": "ReputationTokens",
      "contractAddress": "0x18415df9C157F25b17e6E27413309547FAc25594",
      "function": "grantRole(bytes32,address)",
      "arguments": [
        "0x9f2df0fed2c77648de5860a4cc508cd0818c85b8b8a1ab4ceeef8d981c8956a6",
        "0x2F15D4A66D22ecC6967928b6A76Ab06897b05676"
      ],
      "transaction": {
        "type": "0x00",
        "from": "0x91ec71d0d5f704310e8d7b66418a523b03d18c29",
        "to": "0x18415df9c157f25b17e6e27413309547fac25594",
        "gas": "0x1a95f",
        "value": "0x0",
        "data": "0x2f2ff15d9f2df0fed2c77648de5860a4cc508cd0818c85b8b8a1ab4ceeef8d981c8956a60000000000000000000000002f15d4a66d22ecc6967928b6a76ab06897b05676",
        "nonce": "0x16"
      },
      "additionalContracts": [],
      "isFixedGasLimit": false
    },
    {
      "hash": "0xb3ef7f4b5a89a998fedc556dfd3188a49ef9df95cf9e4de7f1e82ade9dad822d",
      "transactionType": "CALL",
      "contractName": "ReputationTokens",
      "contractAddress": "0x18415df9C157F25b17e6E27413309547FAc25594",
      "function": "grantRole(bytes32,address)",
      "arguments": [
        "0x832b0668f4756f82d274d4d6d2a66f96a8b25b4353ad5dfdae0e691d7769619b",
        "0x2F15D4A66D22ecC6967928b6A76Ab06897b05676"
      ],
      "transaction": {
        "type": "0x00",
        "from": "0x91ec71d0d5f704310e8d7b66418a523b03d18c29",
        "to": "0x18415df9c157f25b17e6e27413309547fac25594",
        "gas": "0x1a95f",
        "value": "0x0",
        "data": "0x2f2ff15d832b0668f4756f82d274d4d6d2a66f96a8b25b4353ad5dfdae0e691d7769619b0000000000000000000000002f15d4a66d22ecc6967928b6a76ab06897b05676",
        "nonce": "0x17"
      },
      "additionalContracts": [],
      "isFixedGasLimit": false
    },
    {
      "hash": "0x24f2f6025fe63d7587deb5d296db7732a77fad08a1795f912e65a64ab6bf36eb",
      "transactionType": "CREATE",
      "contractName": "ReputationFaucet",
      "contractAddress": "0xc759228246b500Ad6b0bd117dbe6B92C10b69ec1",
      "function": null,
      "arguments": [
        "0x18415df9C157F25b17e6E27413309547FAc25594"
      ],
      "transaction": {
        "type": "0x00",
        "from": "0x91ec71d0d5f704310e8d7b66418a523b03d18c29",
        "gas": "0x81c0a",
        "value": "0x0",
        "data": "0x608060405234801561001057600080fd5b5060405161069138038061069183398101604081905261002f91610054565b600080546001600160a01b0319166001600160a01b0392909216919091179055610084565b60006020828403121561006657600080fd5b81516001600160a01b038116811461007d57600080fd5b9392505050565b6105fe806100936000396000f3fe608060405234801561001057600080fd5b506004361061004c5760003560e01c806301ffc9a7146100515780634e71d92d14610079578063bc197c8114610083578063f23a6e61146100bb575b600080fd5b61006461005f366004610289565b6100da565b60405190151581526020015b60405180910390f35b610081610111565b005b6100a261009136600461040d565b63bc197c8160e01b95945050505050565b6040516001600160e01b03199091168152602001610070565b6100a26100c93660046104b7565b63f23a6e6160e01b95945050505050565b60006001600160e01b03198216630271189760e51b148061010b57506301ffc9a760e01b6001600160e01b03198316145b92915050565b60408051600380825260808201909252600091602082016060803683370190505090506000816000815181106101495761014961051c565b60200260200101818152505060018160018151811061016a5761016a61051c565b60200260200101818152505060028160028151811061018b5761018b61051c565b6020908102919091010152604080516003808252608082019092526000918160200160208202803683370190505090506078816000815181106101d0576101d061051c565b6020026020010181815250506078816001815181106101f1576101f161051c565b6020026020010181815250506078816002815181106102125761021261051c565b6020908102919091010152600054604051632ce0d5df60e21b81526001600160a01b039091169063b383577c9061025390309033908790879060040161056d565b600060405180830381600087803b15801561026d57600080fd5b505af1158015610281573d6000803e3d6000fd5b505050505050565b60006020828403121561029b57600080fd5b81356001600160e01b0319811681146102b357600080fd5b9392505050565b80356001600160a01b03811681146102d157600080fd5b919050565b634e487b7160e01b600052604160045260246000fd5b604051601f8201601f1916810167ffffffffffffffff81118282101715610315576103156102d6565b604052919050565b600082601f83011261032e57600080fd5b8135602067ffffffffffffffff82111561034a5761034a6102d6565b8160051b6103598282016102ec565b928352848101820192828101908785111561037357600080fd5b83870192505b8483101561039257823582529183019190830190610379565b979650505050505050565b600082601f8301126103ae57600080fd5b813567ffffffffffffffff8111156103c8576103c86102d6565b6103db601f8201601f19166020016102ec565b8181528460208386010111156103f057600080fd5b816020850160208301376000918101602001919091529392505050565b600080600080600060a0868803121561042557600080fd5b61042e866102ba565b945061043c602087016102ba565b9350604086013567ffffffffffffffff8082111561045957600080fd5b61046589838a0161031d565b9450606088013591508082111561047b57600080fd5b61048789838a0161031d565b9350608088013591508082111561049d57600080fd5b506104aa8882890161039d565b9150509295509295909350565b600080600080600060a086880312156104cf57600080fd5b6104d8866102ba565b94506104e6602087016102ba565b93506040860135925060608601359150608086013567ffffffffffffffff81111561051057600080fd5b6104aa8882890161039d565b634e487b7160e01b600052603260045260246000fd5b600081518084526020808501945080840160005b8381101561056257815187529582019590820190600101610546565b509495945050505050565b6001600160a01b0385811682528416602082015260a06040820181905260009061059990830185610532565b82810360608401526105ab8185610532565b83810360809094019390935250506000815260200194935050505056fea2646970667358221220c23929df179572910162948eb18bd0f306b013d34fa4f59d41b7acfa9759808d64736f6c6343000814003300000000000000000000000018415df9c157f25b17e6e27413309547fac25594",
        "nonce": "0x18"
      },
      "additionalContracts": [],
      "isFixedGasLimit": false
    },
    {
      "hash": "0x7a3f0c37b49be137eb13a8fe4916dd2044f9a24ab2819f954a8944f07f750dd7",
      "transactionType": "CALL",
      "contractName": "ReputationTokens",
      "contractAddress": "0x18415df9C157F25b17e6E27413309547FAc25594",
      "function": "grantRole(bytes32,address)",
      "arguments": [
        "0xfc1552b6aa2747ab03534329d86f6d3131cc2c88af7e48b6486c346619047c1a",
        "0xc759228246b500Ad6b0bd117dbe6B92C10b69ec1"
      ],
      "transaction": {
        "type": "0x00",
        "from": "0x91ec71d0d5f704310e8d7b66418a523b03d18c29",
        "to": "0x18415df9c157f25b17e6e27413309547fac25594",
        "gas": "0x1c254",
        "value": "0x0",
        "data": "0x2f2ff15dfc1552b6aa2747ab03534329d86f6d3131cc2c88af7e48b6486c346619047c1a000000000000000000000000c759228246b500ad6b0bd117dbe6b92c10b69ec1",
        "nonce": "0x19"
      },
      "additionalContracts": [],
      "isFixedGasLimit": false
    },
    {
      "hash": "0xf94251638672db5baac0658b74c28dd6df8d850d7479c84d906aef743f1e4e14",
      "transactionType": "CALL",
      "contractName": "ReputationTokens",
      "contractAddress": "0x18415df9C157F25b17e6E27413309547FAc25594",
      "function": "grantRole(bytes32,address)",
      "arguments": [
        "0x9f2df0fed2c77648de5860a4cc508cd0818c85b8b8a1ab4ceeef8d981c8956a6",
        "0xc759228246b500Ad6b0bd117dbe6B92C10b69ec1"
      ],
      "transaction": {
        "type": "0x00",
        "from": "0x91ec71d0d5f704310e8d7b66418a523b03d18c29",
        "to": "0x18415df9c157f25b17e6e27413309547fac25594",
        "gas": "0x1c254",
        "value": "0x0",
        "data": "0x2f2ff15d9f2df0fed2c77648de5860a4cc508cd0818c85b8b8a1ab4ceeef8d981c8956a6000000000000000000000000c759228246b500ad6b0bd117dbe6b92c10b69ec1",
        "nonce": "0x1a"
      },
      "additionalContracts": [],
      "isFixedGasLimit": false
    },
    {
      "hash": "0xf15d1f309c93435d4c5304d10033e6652b828f0c03e8f1f9de72712a525ecd21",
      "transactionType": "CALL",
      "contractName": "ReputationTokens",
      "contractAddress": "0x18415df9C157F25b17e6E27413309547FAc25594",
      "function": "grantRole(bytes32,address)",
      "arguments": [
        "0x832b0668f4756f82d274d4d6d2a66f96a8b25b4353ad5dfdae0e691d7769619b",
        "0xc759228246b500Ad6b0bd117dbe6B92C10b69ec1"
      ],
      "transaction": {
        "type": "0x00",
        "from": "0x91ec71d0d5f704310e8d7b66418a523b03d18c29",
        "to": "0x18415df9c157f25b17e6e27413309547fac25594",
        "gas": "0x1c254",
        "value": "0x0",
        "data": "0x2f2ff15d832b0668f4756f82d274d4d6d2a66f96a8b25b4353ad5dfdae0e691d7769619b000000000000000000000000c759228246b500ad6b0bd117dbe6b92c10b69ec1",
        "nonce": "0x1b"
      },
      "additionalContracts": [],
      "isFixedGasLimit": false
    },
    {
      "hash": "0xd7ee0875653c0b689b281e9e4ef1e21d4744800fb00f1179aacc8b6985f9e7ab",
      "transactionType": "CALL",
      "contractName": "ReputationTokens",
      "contractAddress": "0x18415df9C157F25b17e6E27413309547FAc25594",
      "function": "updateTokenBatch(uint256[],uint8[],string[])",
      "arguments": [
        "[0, 1, 2]",
        "[1, 2, 0]",
        "[ipfs://bafybeiaz55w6kf7ar2g5vzikfbft2qoexknstfouu524l7q3mliutns2u4/0, ipfs://bafybeiaz55w6kf7ar2g5vzikfbft2qoexknstfouu524l7q3mliutns2u4/1, ipfs://bafkreiheocygb3ty4uo3znjw2wz2asjzavn56owlqjoz4cvxvspg64egtq]"
      ],
      "transaction": {
        "type": "0x00",
        "from": "0x91ec71d0d5f704310e8d7b66418a523b03d18c29",
        "to": "0x18415df9c157f25b17e6e27413309547fac25594",
        "gas": "0x7961d",
        "value": "0x0",
        "data": "0x7bbb0807000000000000000000000000000000000000000000000000000000000000006000000000000000000000000000000000000000000000000000000000000000e00000000000000000000000000000000000000000000000000000000000000160000000000000000000000000000000000000000000000000000000000000000300000000000000000000000000000000000000000000000000000000000000000000000000000000000000000000000000000000000000000000000000000001000000000000000000000000000000000000000000000000000000000000000200000000000000000000000000000000000000000000000000000000000000030000000000000000000000000000000000000000000000000000000000000001000000000000000000000000000000000000000000000000000000000000000200000000000000000000000000000000000000000000000000000000000000000000000000000000000000000000000000000000000000000000000000000003000000000000000000000000000000000000000000000000000000000000006000000000000000000000000000000000000000000000000000000000000000e000000000000000000000000000000000000000000000000000000000000001600000000000000000000000000000000000000000000000000000000000000044697066733a2f2f62616679626569617a353577366b66376172326735767a696b6662667432716f65786b6e7374666f75753532346c3771336d6c6975746e733275342f30000000000000000000000000000000000000000000000000000000000000000000000000000000000000000000000000000000000000000000000044697066733a2f2f62616679626569617a353577366b66376172326735767a696b6662667432716f65786b6e7374666f75753532346c3771336d6c6975746e733275342f31000000000000000000000000000000000000000000000000000000000000000000000000000000000000000000000000000000000000000000000042697066733a2f2f6261666b72656968656f6379676233747934756f337a6e6a7732777a3261736a7a61766e35366f776c716a6f7a3463767876737067363465677471000000000000000000000000000000000000000000000000000000000000",
        "nonce": "0x1c"
      },
      "additionalContracts": [],
      "isFixedGasLimit": false
    },
    {
      "hash": "0xcc310e68b86a18323364de97d2155323006b32b1b990c93ac9507c766bb8468d",
      "transactionType": "CALL",
      "contractName": "ReputationTokens",
      "contractAddress": "0x18415df9C157F25b17e6E27413309547FAc25594",
      "function": "mintBatch(address,uint256[],uint256[],bytes)",
      "arguments": [
        "0xc759228246b500Ad6b0bd117dbe6B92C10b69ec1",
        "[0, 1, 2]",
        "[10000, 10000, 10000]",
        "0x"
      ],
      "transaction": {
        "type": "0x00",
        "from": "0x91ec71d0d5f704310e8d7b66418a523b03d18c29",
        "to": "0x18415df9c157f25b17e6e27413309547fac25594",
        "gas": "0xcf1db",
        "value": "0x0",
        "data": "0x1f7fdffa000000000000000000000000c759228246b500ad6b0bd117dbe6b92c10b69ec1000000000000000000000000000000000000000000000000000000000000008000000000000000000000000000000000000000000000000000000000000001000000000000000000000000000000000000000000000000000000000000000180000000000000000000000000000000000000000000000000000000000000000300000000000000000000000000000000000000000000000000000000000000000000000000000000000000000000000000000000000000000000000000000001000000000000000000000000000000000000000000000000000000000000000200000000000000000000000000000000000000000000000000000000000000030000000000000000000000000000000000000000000000000000000000002710000000000000000000000000000000000000000000000000000000000000271000000000000000000000000000000000000000000000000000000000000027100000000000000000000000000000000000000000000000000000000000000000",
        "nonce": "0x1d"
      },
      "additionalContracts": [],
      "isFixedGasLimit": false
    }
  ],
  "receipts": [
    {
      "transactionHash": "0xf4c6dc67d74f3999c0b25b19140c20a8ca27dc2f835aea9cd711a8d0e33961a3",
      "transactionIndex": "0x8",
      "blockHash": "0xe69f1c151ae28fbfcb0420da2859db9afac7d41d84ee44c8eadf621125af1f4b",
      "blockNumber": "0x748b232",
      "from": "0x91eC71D0D5f704310E8d7b66418a523b03D18C29",
      "to": null,
      "cumulativeGasUsed": "0x54d44a",
      "gasUsed": "0x311694",
      "contractAddress": "0x18415df9C157F25b17e6E27413309547FAc25594",
      "logs": [
        {
          "address": "0x18415df9C157F25b17e6E27413309547FAc25594",
          "topics": [
            "0x8be0079c531659141344cd1fd0a4f28419497f9722a3daafe3b4186f6b6457e0",
            "0x0000000000000000000000000000000000000000000000000000000000000000",
            "0x0000000000000000000000002f15d4a66d22ecc6967928b6a76ab06897b05676"
          ],
          "data": "0x",
          "blockHash": "0xe69f1c151ae28fbfcb0420da2859db9afac7d41d84ee44c8eadf621125af1f4b",
          "blockNumber": "0x748b232",
          "transactionHash": "0xf4c6dc67d74f3999c0b25b19140c20a8ca27dc2f835aea9cd711a8d0e33961a3",
          "transactionIndex": "0x8",
          "logIndex": "0x19",
          "removed": false
        },
        {
          "address": "0x18415df9C157F25b17e6E27413309547FAc25594",
          "topics": [
            "0x2f8788117e7eff1d82e926ec794901d17c78024a50270940304540a733656f0d",
            "0x0000000000000000000000000000000000000000000000000000000000000000",
            "0x00000000000000000000000091ec71d0d5f704310e8d7b66418a523b03d18c29",
            "0x00000000000000000000000091ec71d0d5f704310e8d7b66418a523b03d18c29"
          ],
          "data": "0x",
          "blockHash": "0xe69f1c151ae28fbfcb0420da2859db9afac7d41d84ee44c8eadf621125af1f4b",
          "blockNumber": "0x748b232",
          "transactionHash": "0xf4c6dc67d74f3999c0b25b19140c20a8ca27dc2f835aea9cd711a8d0e33961a3",
          "transactionIndex": "0x8",
          "logIndex": "0x1a",
          "removed": false
        },
        {
          "address": "0x18415df9C157F25b17e6E27413309547FAc25594",
          "topics": [
            "0x2f8788117e7eff1d82e926ec794901d17c78024a50270940304540a733656f0d",
            "0x0000000000000000000000000000000000000000000000000000000000000000",
            "0x0000000000000000000000002f15d4a66d22ecc6967928b6a76ab06897b05676",
            "0x00000000000000000000000091ec71d0d5f704310e8d7b66418a523b03d18c29"
          ],
          "data": "0x",
          "blockHash": "0xe69f1c151ae28fbfcb0420da2859db9afac7d41d84ee44c8eadf621125af1f4b",
          "blockNumber": "0x748b232",
          "transactionHash": "0xf4c6dc67d74f3999c0b25b19140c20a8ca27dc2f835aea9cd711a8d0e33961a3",
          "transactionIndex": "0x8",
          "logIndex": "0x1b",
          "removed": false
        },
        {
          "address": "0x18415df9C157F25b17e6E27413309547FAc25594",
          "topics": [
            "0x2f8788117e7eff1d82e926ec794901d17c78024a50270940304540a733656f0d",
            "0xfc1552b6aa2747ab03534329d86f6d3131cc2c88af7e48b6486c346619047c1a",
            "0x00000000000000000000000091ec71d0d5f704310e8d7b66418a523b03d18c29",
            "0x00000000000000000000000091ec71d0d5f704310e8d7b66418a523b03d18c29"
          ],
          "data": "0x",
          "blockHash": "0xe69f1c151ae28fbfcb0420da2859db9afac7d41d84ee44c8eadf621125af1f4b",
          "blockNumber": "0x748b232",
          "transactionHash": "0xf4c6dc67d74f3999c0b25b19140c20a8ca27dc2f835aea9cd711a8d0e33961a3",
          "transactionIndex": "0x8",
          "logIndex": "0x1c",
          "removed": false
        },
        {
          "address": "0x18415df9C157F25b17e6E27413309547FAc25594",
          "topics": [
            "0x2f8788117e7eff1d82e926ec794901d17c78024a50270940304540a733656f0d",
            "0xfc1552b6aa2747ab03534329d86f6d3131cc2c88af7e48b6486c346619047c1a",
            "0x0000000000000000000000002f15d4a66d22ecc6967928b6a76ab06897b05676",
            "0x00000000000000000000000091ec71d0d5f704310e8d7b66418a523b03d18c29"
          ],
          "data": "0x",
          "blockHash": "0xe69f1c151ae28fbfcb0420da2859db9afac7d41d84ee44c8eadf621125af1f4b",
          "blockNumber": "0x748b232",
          "transactionHash": "0xf4c6dc67d74f3999c0b25b19140c20a8ca27dc2f835aea9cd711a8d0e33961a3",
          "transactionIndex": "0x8",
          "logIndex": "0x1d",
          "removed": false
        }
      ],
      "status": "0x1",
      "logsBloom": "0x00000004000000000000000000000000000000000000000000800000000000000000000000000000000000000000001404400000000000000000000000000000400000000000000000000000000000000001000000000000000000000800000000000000020000000000000000000800000810000000000000000000000000400000000000000000000000000000000000000000000000000000000000000000000000000002000000000000000000000000000000001000001000000000800000040000000000000000000000000000000000000000000100000000000020000000000000000000000000000000000000000000000000000000000000000000",
      "type": "0x0",
      "effectiveGasPrice": "0x399c2d3"
    },
    {
      "transactionHash": "0xa3c3207a9d22f29d7cc4facac4e39a82d59fa330ba91c75266f690aa150b7830",
      "transactionIndex": "0x9",
      "blockHash": "0xe69f1c151ae28fbfcb0420da2859db9afac7d41d84ee44c8eadf621125af1f4b",
      "blockNumber": "0x748b232",
      "from": "0x91eC71D0D5f704310E8d7b66418a523b03D18C29",
      "to": "0x18415df9C157F25b17e6E27413309547FAc25594",
      "cumulativeGasUsed": "0x554f3c",
      "gasUsed": "0x7af2",
      "contractAddress": null,
      "logs": [
        {
          "address": "0x18415df9C157F25b17e6E27413309547FAc25594",
          "topics": [
            "0x2f8788117e7eff1d82e926ec794901d17c78024a50270940304540a733656f0d",
            "0xfc1552b6aa2747ab03534329d86f6d3131cc2c88af7e48b6486c346619047c1a",
            "0x00000000000000000000000091ec71d0d5f704310e8d7b66418a523b03d18c29",
            "0x00000000000000000000000091ec71d0d5f704310e8d7b66418a523b03d18c29"
          ],
          "data": "0x",
          "blockHash": "0xe69f1c151ae28fbfcb0420da2859db9afac7d41d84ee44c8eadf621125af1f4b",
          "blockNumber": "0x748b232",
          "transactionHash": "0xa3c3207a9d22f29d7cc4facac4e39a82d59fa330ba91c75266f690aa150b7830",
          "transactionIndex": "0x9",
          "logIndex": "0x1e",
          "removed": false
        }
      ],
      "status": "0x1",
      "logsBloom": "0x00000004000000000000000000000000000000000000000000000000000000000000000000000000000000000000001400400000000000000000000000000000000000000000000000000000000000000000000000000000000000000800000000000000000000000000000000000000000810000000000000000000000000000000000000000000000000000000000000000000000000000000000000000000000000000002000000000000000000000000000000001000001000000000000000040000000000000000000000000000000000000000000100000000000000000000000000000000000000000000000000000000000000000000000000000000",
      "type": "0x0",
      "effectiveGasPrice": "0x399c2d3"
    },
    {
      "transactionHash": "0x48f8f0bd4cfda0cbf5f56021208d786cc1361f3da9f3d3c3a49be0a86cd05dcb",
      "transactionIndex": "0xa",
      "blockHash": "0xe69f1c151ae28fbfcb0420da2859db9afac7d41d84ee44c8eadf621125af1f4b",
      "blockNumber": "0x748b232",
      "from": "0x91eC71D0D5f704310E8d7b66418a523b03D18C29",
      "to": "0x18415df9C157F25b17e6E27413309547FAc25594",
      "cumulativeGasUsed": "0x56c5ff",
      "gasUsed": "0x176c3",
      "contractAddress": null,
      "logs": [
        {
          "address": "0x18415df9C157F25b17e6E27413309547FAc25594",
          "topics": [
            "0x2f8788117e7eff1d82e926ec794901d17c78024a50270940304540a733656f0d",
            "0x9f2df0fed2c77648de5860a4cc508cd0818c85b8b8a1ab4ceeef8d981c8956a6",
            "0x00000000000000000000000091ec71d0d5f704310e8d7b66418a523b03d18c29",
            "0x00000000000000000000000091ec71d0d5f704310e8d7b66418a523b03d18c29"
          ],
          "data": "0x",
          "blockHash": "0xe69f1c151ae28fbfcb0420da2859db9afac7d41d84ee44c8eadf621125af1f4b",
          "blockNumber": "0x748b232",
          "transactionHash": "0x48f8f0bd4cfda0cbf5f56021208d786cc1361f3da9f3d3c3a49be0a86cd05dcb",
          "transactionIndex": "0xa",
          "logIndex": "0x1f",
          "removed": false
        }
      ],
      "status": "0x1",
      "logsBloom": "0x00000004000000000000000000000000000000000000000000000000000000000000000000000000000000000000005000400000000000000000000000000000000000000000000000000000000000000000000000000000000000000000000000000000000000000000000000000000000810000000000000000000001000000000000000000000000000000000000000000000000000000000000000000000000000000002000000000000000000000000000000000000001000000000000000040000000000000000000000000000001000000000000100000000000000000000000000000000000000000000000000000000000000000000000000000000",
      "type": "0x0",
      "effectiveGasPrice": "0x399c2d3"
    },
    {
      "transactionHash": "0x3abac9aa151cc0448ddc364810c3e6cd5ec80ec66f95f993c1d0344c40ec0830",
      "transactionIndex": "0xb",
      "blockHash": "0xe69f1c151ae28fbfcb0420da2859db9afac7d41d84ee44c8eadf621125af1f4b",
      "blockNumber": "0x748b232",
      "from": "0x91eC71D0D5f704310E8d7b66418a523b03D18C29",
      "to": "0x18415df9C157F25b17e6E27413309547FAc25594",
      "cumulativeGasUsed": "0x583cc2",
      "gasUsed": "0x176c3",
      "contractAddress": null,
      "logs": [
        {
          "address": "0x18415df9C157F25b17e6E27413309547FAc25594",
          "topics": [
            "0x2f8788117e7eff1d82e926ec794901d17c78024a50270940304540a733656f0d",
            "0x832b0668f4756f82d274d4d6d2a66f96a8b25b4353ad5dfdae0e691d7769619b",
            "0x00000000000000000000000091ec71d0d5f704310e8d7b66418a523b03d18c29",
            "0x00000000000000000000000091ec71d0d5f704310e8d7b66418a523b03d18c29"
          ],
          "data": "0x",
          "blockHash": "0xe69f1c151ae28fbfcb0420da2859db9afac7d41d84ee44c8eadf621125af1f4b",
          "blockNumber": "0x748b232",
          "transactionHash": "0x3abac9aa151cc0448ddc364810c3e6cd5ec80ec66f95f993c1d0344c40ec0830",
          "transactionIndex": "0xb",
          "logIndex": "0x20",
          "removed": false
        }
      ],
      "status": "0x1",
      "logsBloom": "0x00001004000000000000000000000000000000000000000000000000000000000000000000000000000000000000001000400000000000000000000000000000000000800000000000000000000000000000000000000000000000000000000000000000000000000000000000000000000810000000000000000000000000000000100000000000000000000000000000000000000000000000000000000000000000000002000000000000000000000000000000000000001000000000000000040000000000000000000000000000000000000000000100000000000000000000000000000000000000000000000000000000000000000000000000000000",
      "type": "0x0",
      "effectiveGasPrice": "0x399c2d3"
    },
    {
      "transactionHash": "0xd9ebacabdb6d2fb2dccf147e7e65e5aa758a4766f6d518d456278f336d98a068",
      "transactionIndex": "0xc",
      "blockHash": "0xe69f1c151ae28fbfcb0420da2859db9afac7d41d84ee44c8eadf621125af1f4b",
      "blockNumber": "0x748b232",
      "from": "0x91eC71D0D5f704310E8d7b66418a523b03D18C29",
      "to": "0x18415df9C157F25b17e6E27413309547FAc25594",
      "cumulativeGasUsed": "0x58b7b4",
      "gasUsed": "0x7af2",
      "contractAddress": null,
      "logs": [
        {
          "address": "0x18415df9C157F25b17e6E27413309547FAc25594",
          "topics": [
            "0x2f8788117e7eff1d82e926ec794901d17c78024a50270940304540a733656f0d",
            "0xfc1552b6aa2747ab03534329d86f6d3131cc2c88af7e48b6486c346619047c1a",
            "0x0000000000000000000000002f15d4a66d22ecc6967928b6a76ab06897b05676",
            "0x00000000000000000000000091ec71d0d5f704310e8d7b66418a523b03d18c29"
          ],
          "data": "0x",
          "blockHash": "0xe69f1c151ae28fbfcb0420da2859db9afac7d41d84ee44c8eadf621125af1f4b",
          "blockNumber": "0x748b232",
          "transactionHash": "0xd9ebacabdb6d2fb2dccf147e7e65e5aa758a4766f6d518d456278f336d98a068",
          "transactionIndex": "0xc",
          "logIndex": "0x21",
          "removed": false
        }
      ],
      "status": "0x1",
      "logsBloom": "0x00000004000000000000000000000000000000000000000000000000000000000000000000000000000000000000001404400000000000000000000000000000400000000000000000000000000000000000000000000000000000000800000000000000000000000000000000000000000810000000000000000000000000000000000000000000000000000000000000000000000000000000000000000000000000000002000000000000000000000000000000001000001000000000800000040000000000000000000000000000000000000000000100000000000000000000000000000000000000000000000000000000000000000000000000000000",
      "type": "0x0",
      "effectiveGasPrice": "0x399c2d3"
    },
    {
      "transactionHash": "0x1819614fef248d8d5d63b0208e23221a59a9c3ae8e70ae2573a927b54b2f9727",
      "transactionIndex": "0xd",
      "blockHash": "0xe69f1c151ae28fbfcb0420da2859db9afac7d41d84ee44c8eadf621125af1f4b",
      "blockNumber": "0x748b232",
      "from": "0x91eC71D0D5f704310E8d7b66418a523b03D18C29",
      "to": "0x18415df9C157F25b17e6E27413309547FAc25594",
      "cumulativeGasUsed": "0x59ebab",
      "gasUsed": "0x133f7",
      "contractAddress": null,
      "logs": [
        {
          "address": "0x18415df9C157F25b17e6E27413309547FAc25594",
          "topics": [
            "0x2f8788117e7eff1d82e926ec794901d17c78024a50270940304540a733656f0d",
            "0x9f2df0fed2c77648de5860a4cc508cd0818c85b8b8a1ab4ceeef8d981c8956a6",
            "0x0000000000000000000000002f15d4a66d22ecc6967928b6a76ab06897b05676",
            "0x00000000000000000000000091ec71d0d5f704310e8d7b66418a523b03d18c29"
          ],
          "data": "0x",
          "blockHash": "0xe69f1c151ae28fbfcb0420da2859db9afac7d41d84ee44c8eadf621125af1f4b",
          "blockNumber": "0x748b232",
          "transactionHash": "0x1819614fef248d8d5d63b0208e23221a59a9c3ae8e70ae2573a927b54b2f9727",
          "transactionIndex": "0xd",
          "logIndex": "0x22",
          "removed": false
        }
      ],
      "status": "0x1",
      "logsBloom": "0x00000004000000000000000000000000000000000000000000000000000000000000000000000000000000000000005004400000000000000000000000000000400000000000000000000000000000000000000000000000000000000000000000000000000000000000000000000000000810000000000000000000001000000000000000000000000000000000000000000000000000000000000000000000000000000002000000000000000000000000000000000000001000000000800000040000000000000000000000000000001000000000000100000000000000000000000000000000000000000000000000000000000000000000000000000000",
      "type": "0x0",
      "effectiveGasPrice": "0x399c2d3"
    },
    {
      "transactionHash": "0xb3ef7f4b5a89a998fedc556dfd3188a49ef9df95cf9e4de7f1e82ade9dad822d",
      "transactionIndex": "0xe",
      "blockHash": "0xe69f1c151ae28fbfcb0420da2859db9afac7d41d84ee44c8eadf621125af1f4b",
      "blockNumber": "0x748b232",
      "from": "0x91eC71D0D5f704310E8d7b66418a523b03D18C29",
      "to": "0x18415df9C157F25b17e6E27413309547FAc25594",
      "cumulativeGasUsed": "0x5b1fa2",
      "gasUsed": "0x133f7",
      "contractAddress": null,
      "logs": [
        {
          "address": "0x18415df9C157F25b17e6E27413309547FAc25594",
          "topics": [
            "0x2f8788117e7eff1d82e926ec794901d17c78024a50270940304540a733656f0d",
            "0x832b0668f4756f82d274d4d6d2a66f96a8b25b4353ad5dfdae0e691d7769619b",
            "0x0000000000000000000000002f15d4a66d22ecc6967928b6a76ab06897b05676",
            "0x00000000000000000000000091ec71d0d5f704310e8d7b66418a523b03d18c29"
          ],
          "data": "0x",
          "blockHash": "0xe69f1c151ae28fbfcb0420da2859db9afac7d41d84ee44c8eadf621125af1f4b",
          "blockNumber": "0x748b232",
          "transactionHash": "0xb3ef7f4b5a89a998fedc556dfd3188a49ef9df95cf9e4de7f1e82ade9dad822d",
          "transactionIndex": "0xe",
          "logIndex": "0x23",
          "removed": false
        }
      ],
      "status": "0x1",
      "logsBloom": "0x00001004000000000000000000000000000000000000000000000000000000000000000000000000000000000000001004400000000000000000000000000000400000800000000000000000000000000000000000000000000000000000000000000000000000000000000000000000000810000000000000000000000000000000100000000000000000000000000000000000000000000000000000000000000000000002000000000000000000000000000000000000001000000000800000040000000000000000000000000000000000000000000100000000000000000000000000000000000000000000000000000000000000000000000000000000",
      "type": "0x0",
      "effectiveGasPrice": "0x399c2d3"
    },
    {
      "transactionHash": "0x24f2f6025fe63d7587deb5d296db7732a77fad08a1795f912e65a64ab6bf36eb",
      "transactionIndex": "0xf",
      "blockHash": "0xe69f1c151ae28fbfcb0420da2859db9afac7d41d84ee44c8eadf621125af1f4b",
      "blockNumber": "0x748b232",
      "from": "0x91eC71D0D5f704310E8d7b66418a523b03D18C29",
      "to": null,
      "cumulativeGasUsed": "0x615d02",
      "gasUsed": "0x63d60",
      "contractAddress": "0xc759228246b500Ad6b0bd117dbe6B92C10b69ec1",
      "logs": [],
      "status": "0x1",
      "logsBloom": "0x00000000000000000000000000000000000000000000000000000000000000000000000000000000000000000000000000000000000000000000000000000000000000000000000000000000000000000000000000000000000000000000000000000000000000000000000000000000000000000000000000000000000000000000000000000000000000000000000000000000000000000000000000000000000000000000000000000000000000000000000000000000000000000000000000000000000000000000000000000000000000000000000000000000000000000000000000000000000000000000000000000000000000000000000000000000",
      "type": "0x0",
      "effectiveGasPrice": "0x399c2d3"
    },
    {
      "transactionHash": "0x7a3f0c37b49be137eb13a8fe4916dd2044f9a24ab2819f954a8944f07f750dd7",
      "transactionIndex": "0x10",
      "blockHash": "0xe69f1c151ae28fbfcb0420da2859db9afac7d41d84ee44c8eadf621125af1f4b",
      "blockNumber": "0x748b232",
      "from": "0x91eC71D0D5f704310E8d7b66418a523b03D18C29",
      "to": "0x18415df9C157F25b17e6E27413309547FAc25594",
      "cumulativeGasUsed": "0x6290ed",
      "gasUsed": "0x133eb",
      "contractAddress": null,
      "logs": [
        {
          "address": "0x18415df9C157F25b17e6E27413309547FAc25594",
          "topics": [
            "0x2f8788117e7eff1d82e926ec794901d17c78024a50270940304540a733656f0d",
            "0xfc1552b6aa2747ab03534329d86f6d3131cc2c88af7e48b6486c346619047c1a",
            "0x000000000000000000000000c759228246b500ad6b0bd117dbe6b92c10b69ec1",
            "0x00000000000000000000000091ec71d0d5f704310e8d7b66418a523b03d18c29"
          ],
          "data": "0x",
          "blockHash": "0xe69f1c151ae28fbfcb0420da2859db9afac7d41d84ee44c8eadf621125af1f4b",
          "blockNumber": "0x748b232",
          "transactionHash": "0x7a3f0c37b49be137eb13a8fe4916dd2044f9a24ab2819f954a8944f07f750dd7",
          "transactionIndex": "0x10",
          "logIndex": "0x24",
          "removed": false
        }
      ],
      "status": "0x1",
      "logsBloom": "0x00000004000000000000000000000000000000000000000000000000000000000000000000000000000000000000001400600000000000000000000000000000000000000000000000000000000000000000000000000000000000000800000000000000000000000000000000000000000810000000000000000000000000000000000000000000000000000000000000000000000000000000000000100000000000000002000000000000000000000000000000001000001000000000000000040080000000000000000000000000000000000000000100000000000000000000000000000000000000000000000000000000000000000000000000000000",
      "type": "0x0",
      "effectiveGasPrice": "0x399c2d3"
    },
    {
      "transactionHash": "0xf94251638672db5baac0658b74c28dd6df8d850d7479c84d906aef743f1e4e14",
      "transactionIndex": "0x11",
      "blockHash": "0xe69f1c151ae28fbfcb0420da2859db9afac7d41d84ee44c8eadf621125af1f4b",
      "blockNumber": "0x748b232",
      "from": "0x91eC71D0D5f704310E8d7b66418a523b03D18C29",
      "to": "0x18415df9C157F25b17e6E27413309547FAc25594",
      "cumulativeGasUsed": "0x63c4d8",
      "gasUsed": "0x133eb",
      "contractAddress": null,
      "logs": [
        {
          "address": "0x18415df9C157F25b17e6E27413309547FAc25594",
          "topics": [
            "0x2f8788117e7eff1d82e926ec794901d17c78024a50270940304540a733656f0d",
            "0x9f2df0fed2c77648de5860a4cc508cd0818c85b8b8a1ab4ceeef8d981c8956a6",
            "0x000000000000000000000000c759228246b500ad6b0bd117dbe6b92c10b69ec1",
            "0x00000000000000000000000091ec71d0d5f704310e8d7b66418a523b03d18c29"
          ],
          "data": "0x",
          "blockHash": "0xe69f1c151ae28fbfcb0420da2859db9afac7d41d84ee44c8eadf621125af1f4b",
          "blockNumber": "0x748b232",
          "transactionHash": "0xf94251638672db5baac0658b74c28dd6df8d850d7479c84d906aef743f1e4e14",
          "transactionIndex": "0x11",
          "logIndex": "0x25",
          "removed": false
        }
      ],
      "status": "0x1",
      "logsBloom": "0x00000004000000000000000000000000000000000000000000000000000000000000000000000000000000000000005000600000000000000000000000000000000000000000000000000000000000000000000000000000000000000000000000000000000000000000000000000000000810000000000000000000001000000000000000000000000000000000000000000000000000000000000000100000000000000002000000000000000000000000000000000000001000000000000000040080000000000000000000000000001000000000000100000000000000000000000000000000000000000000000000000000000000000000000000000000",
      "type": "0x0",
      "effectiveGasPrice": "0x399c2d3"
    },
    {
      "transactionHash": "0xf15d1f309c93435d4c5304d10033e6652b828f0c03e8f1f9de72712a525ecd21",
      "transactionIndex": "0x12",
      "blockHash": "0xe69f1c151ae28fbfcb0420da2859db9afac7d41d84ee44c8eadf621125af1f4b",
      "blockNumber": "0x748b232",
      "from": "0x91eC71D0D5f704310E8d7b66418a523b03D18C29",
      "to": "0x18415df9C157F25b17e6E27413309547FAc25594",
      "cumulativeGasUsed": "0x64f8c3",
      "gasUsed": "0x133eb",
      "contractAddress": null,
      "logs": [
        {
          "address": "0x18415df9C157F25b17e6E27413309547FAc25594",
          "topics": [
            "0x2f8788117e7eff1d82e926ec794901d17c78024a50270940304540a733656f0d",
            "0x832b0668f4756f82d274d4d6d2a66f96a8b25b4353ad5dfdae0e691d7769619b",
            "0x000000000000000000000000c759228246b500ad6b0bd117dbe6b92c10b69ec1",
            "0x00000000000000000000000091ec71d0d5f704310e8d7b66418a523b03d18c29"
          ],
          "data": "0x",
          "blockHash": "0xe69f1c151ae28fbfcb0420da2859db9afac7d41d84ee44c8eadf621125af1f4b",
          "blockNumber": "0x748b232",
          "transactionHash": "0xf15d1f309c93435d4c5304d10033e6652b828f0c03e8f1f9de72712a525ecd21",
          "transactionIndex": "0x12",
          "logIndex": "0x26",
          "removed": false
        }
      ],
      "status": "0x1",
      "logsBloom": "0x00001004000000000000000000000000000000000000000000000000000000000000000000000000000000000000001000600000000000000000000000000000000000800000000000000000000000000000000000000000000000000000000000000000000000000000000000000000000810000000000000000000000000000000100000000000000000000000000000000000000000000000000000100000000000000002000000000000000000000000000000000000001000000000000000040080000000000000000000000000000000000000000100000000000000000000000000000000000000000000000000000000000000000000000000000000",
      "type": "0x0",
      "effectiveGasPrice": "0x399c2d3"
    },
    {
      "transactionHash": "0xd7ee0875653c0b689b281e9e4ef1e21d4744800fb00f1179aacc8b6985f9e7ab",
      "transactionIndex": "0x13",
      "blockHash": "0xe69f1c151ae28fbfcb0420da2859db9afac7d41d84ee44c8eadf621125af1f4b",
      "blockNumber": "0x748b232",
      "from": "0x91eC71D0D5f704310E8d7b66418a523b03D18C29",
      "to": "0x18415df9C157F25b17e6E27413309547FAc25594",
      "cumulativeGasUsed": "0x6a76d2",
      "gasUsed": "0x57e0f",
      "contractAddress": null,
      "logs": [
        {
          "address": "0x18415df9C157F25b17e6E27413309547FAc25594",
          "topics": [
            "0x6bb7ff708619ba0610cba295a58592e0451dee2622938c8755667688daf3529b",
            "0x0000000000000000000000000000000000000000000000000000000000000000"
          ],
          "data": "0x00000000000000000000000000000000000000000000000000000000000000200000000000000000000000000000000000000000000000000000000000000044697066733a2f2f62616679626569617a353577366b66376172326735767a696b6662667432716f65786b6e7374666f75753532346c3771336d6c6975746e733275342f3000000000000000000000000000000000000000000000000000000000",
          "blockHash": "0xe69f1c151ae28fbfcb0420da2859db9afac7d41d84ee44c8eadf621125af1f4b",
          "blockNumber": "0x748b232",
          "transactionHash": "0xd7ee0875653c0b689b281e9e4ef1e21d4744800fb00f1179aacc8b6985f9e7ab",
          "transactionIndex": "0x13",
          "logIndex": "0x27",
          "removed": false
        },
        {
          "address": "0x18415df9C157F25b17e6E27413309547FAc25594",
          "topics": [
            "0x6bb7ff708619ba0610cba295a58592e0451dee2622938c8755667688daf3529b",
            "0x0000000000000000000000000000000000000000000000000000000000000001"
          ],
          "data": "0x00000000000000000000000000000000000000000000000000000000000000200000000000000000000000000000000000000000000000000000000000000044697066733a2f2f62616679626569617a353577366b66376172326735767a696b6662667432716f65786b6e7374666f75753532346c3771336d6c6975746e733275342f3100000000000000000000000000000000000000000000000000000000",
          "blockHash": "0xe69f1c151ae28fbfcb0420da2859db9afac7d41d84ee44c8eadf621125af1f4b",
          "blockNumber": "0x748b232",
          "transactionHash": "0xd7ee0875653c0b689b281e9e4ef1e21d4744800fb00f1179aacc8b6985f9e7ab",
          "transactionIndex": "0x13",
          "logIndex": "0x28",
          "removed": false
        },
        {
          "address": "0x18415df9C157F25b17e6E27413309547FAc25594",
          "topics": [
            "0x6bb7ff708619ba0610cba295a58592e0451dee2622938c8755667688daf3529b",
            "0x0000000000000000000000000000000000000000000000000000000000000002"
          ],
          "data": "0x00000000000000000000000000000000000000000000000000000000000000200000000000000000000000000000000000000000000000000000000000000042697066733a2f2f6261666b72656968656f6379676233747934756f337a6e6a7732777a3261736a7a61766e35366f776c716a6f7a3463767876737067363465677471000000000000000000000000000000000000000000000000000000000000",
          "blockHash": "0xe69f1c151ae28fbfcb0420da2859db9afac7d41d84ee44c8eadf621125af1f4b",
          "blockNumber": "0x748b232",
          "transactionHash": "0xd7ee0875653c0b689b281e9e4ef1e21d4744800fb00f1179aacc8b6985f9e7ab",
          "transactionIndex": "0x13",
          "logIndex": "0x29",
          "removed": false
        },
        {
          "address": "0x18415df9C157F25b17e6E27413309547FAc25594",
          "topics": [
            "0x458bf7bb252bc16e01b2caf4ced1e71c065d09eccd86100e5f32036a1a556014",
            "0xe682b7c401097344fed1af3e3492f018caf2a2491b45159ba612453495164301",
            "0x25709ff08e817e4d69c96350c24d3b65079a6416b07e8b7414e2a5a270a726a4"
          ],
          "data": "0x",
          "blockHash": "0xe69f1c151ae28fbfcb0420da2859db9afac7d41d84ee44c8eadf621125af1f4b",
          "blockNumber": "0x748b232",
          "transactionHash": "0xd7ee0875653c0b689b281e9e4ef1e21d4744800fb00f1179aacc8b6985f9e7ab",
          "transactionIndex": "0x13",
          "logIndex": "0x2a",
          "removed": false
        }
      ],
      "status": "0x1",
      "logsBloom": "0x040400000000000000000000000000000000000000000000000000008000000000000000000000000000000000000010000000000000000000000000000c0000000000000000010000000020000000000001000000040000000000000000000000000800020000000000000000000800000810000000000000000000000000000000000000000000000000000000001000000000000000000000000000000000000000000000000000000100000000000000000000000000000000000000000000000000000000000000000000000000000000000020080000000000000060000040000000000000000000000000000001000000008000000000000000000000",
      "type": "0x0",
      "effectiveGasPrice": "0x399c2d3"
    },
    {
      "transactionHash": "0xcc310e68b86a18323364de97d2155323006b32b1b990c93ac9507c766bb8468d",
      "transactionIndex": "0x14",
      "blockHash": "0xe69f1c151ae28fbfcb0420da2859db9afac7d41d84ee44c8eadf621125af1f4b",
      "blockNumber": "0x748b232",
      "from": "0x91eC71D0D5f704310E8d7b66418a523b03D18C29",
      "to": "0x18415df9C157F25b17e6E27413309547FAc25594",
      "cumulativeGasUsed": "0x7350b5",
      "gasUsed": "0x8d9e3",
      "contractAddress": null,
      "logs": [
        {
          "address": "0x18415df9C157F25b17e6E27413309547FAc25594",
          "topics": [
            "0x5c5ac6bfb3f54a39f008d2e9be10d575012f29230716d49e92da377d748b1a87",
            "0x00000000000000000000000091ec71d0d5f704310e8d7b66418a523b03d18c29",
            "0x000000000000000000000000c759228246b500ad6b0bd117dbe6b92c10b69ec1"
          ],
          "data": "0x000000000000000000000000000000000000000000000000000000000000004000000000000000000000000000000000000000000000000000000000000000c000000000000000000000000000000000000000000000000000000000000000030000000000000000000000000000000000000000000000000000000000000000000000000000000000000000000000000000000000000000000000000000000100000000000000000000000000000000000000000000000000000000000000020000000000000000000000000000000000000000000000000000000000000003000000000000000000000000000000000000000000000000000000000000271000000000000000000000000000000000000000000000000000000000000027100000000000000000000000000000000000000000000000000000000000002710",
          "blockHash": "0xe69f1c151ae28fbfcb0420da2859db9afac7d41d84ee44c8eadf621125af1f4b",
          "blockNumber": "0x748b232",
          "transactionHash": "0xcc310e68b86a18323364de97d2155323006b32b1b990c93ac9507c766bb8468d",
          "transactionIndex": "0x14",
          "logIndex": "0x2b",
          "removed": false
        },
        {
          "address": "0x18415df9C157F25b17e6E27413309547FAc25594",
          "topics": [
            "0x4a39dc06d4c0dbc64b70af90fd698a233a518aa5d07e595d983b8c0526c8f7fb",
            "0x00000000000000000000000091ec71d0d5f704310e8d7b66418a523b03d18c29",
            "0x0000000000000000000000000000000000000000000000000000000000000000",
            "0x000000000000000000000000c759228246b500ad6b0bd117dbe6b92c10b69ec1"
          ],
          "data": "0x000000000000000000000000000000000000000000000000000000000000004000000000000000000000000000000000000000000000000000000000000000c000000000000000000000000000000000000000000000000000000000000000030000000000000000000000000000000000000000000000000000000000000000000000000000000000000000000000000000000000000000000000000000000100000000000000000000000000000000000000000000000000000000000000020000000000000000000000000000000000000000000000000000000000000003000000000000000000000000000000000000000000000000000000000000271000000000000000000000000000000000000000000000000000000000000027100000000000000000000000000000000000000000000000000000000000002710",
          "blockHash": "0xe69f1c151ae28fbfcb0420da2859db9afac7d41d84ee44c8eadf621125af1f4b",
          "blockNumber": "0x748b232",
          "transactionHash": "0xcc310e68b86a18323364de97d2155323006b32b1b990c93ac9507c766bb8468d",
          "transactionIndex": "0x14",
          "logIndex": "0x2c",
          "removed": false
        }
      ],
      "status": "0x1",
      "logsBloom": "0x00000000000000000000000000000000000000000000000000000000000000000000000000000000000000000000001000600000000000000000000000000000000000000000000000000000000000000000000000000000000000000000000000000000020000000000000000000800000810000800000000000000000000000000000000000000000000000000000000000000000000000000000000101000000000000002000000000000000000002000000000000000000000000000000000040080000000000000000000000000000400000000000000000000000020000000000000000000000080000000000000000000000000000000000002000000",
      "type": "0x0",
      "effectiveGasPrice": "0x399c2d3"
    }
  ],
  "libraries": [],
  "pending": [],
  "returns": {},
  "timestamp": 1720008226,
  "chain": 10,
  "multi": false,
  "commit": "1793944"
}